{
  "contractName": "Voting",
  "abi": [
    {
      "constant": true,
      "inputs": [
        {
          "name": "candidate",
          "type": "bytes32"
        }
      ],
      "name": "totalVotesFor",
      "outputs": [
        {
          "name": "",
          "type": "uint256"
        }
      ],
      "payable": false,
      "stateMutability": "view",
      "type": "function"
    },
    {
      "constant": false,
      "inputs": [
        {
          "name": "user",
          "type": "address"
        }
      ],
      "name": "refundTokens",
      "outputs": [],
      "payable": false,
      "stateMutability": "nonpayable",
      "type": "function"
    },
    {
      "constant": true,
      "inputs": [],
      "name": "tokensSold",
      "outputs": [
        {
          "name": "",
          "type": "uint256"
        }
      ],
      "payable": false,
      "stateMutability": "view",
      "type": "function"
    },
    {
      "constant": true,
      "inputs": [
        {
          "name": "user",
          "type": "address"
        }
      ],
      "name": "voterDetails",
      "outputs": [
        {
          "name": "",
          "type": "uint256"
        },
        {
          "name": "",
          "type": "uint256[]"
        }
      ],
      "payable": false,
      "stateMutability": "view",
      "type": "function"
    },
    {
      "constant": false,
      "inputs": [
        {
          "name": "candidate",
          "type": "bytes32"
        },
        {
          "name": "votesInTokens",
          "type": "uint256"
        }
      ],
      "name": "voteForCandidate",
      "outputs": [],
      "payable": false,
      "stateMutability": "nonpayable",
      "type": "function"
    },
    {
      "constant": true,
      "inputs": [
        {
          "name": "",
          "type": "bytes32"
        }
      ],
      "name": "votesReceived",
      "outputs": [
        {
          "name": "",
          "type": "uint256"
        }
      ],
      "payable": false,
      "stateMutability": "view",
      "type": "function"
    },
    {
      "constant": true,
      "inputs": [],
      "name": "totalTokens",
      "outputs": [
        {
          "name": "",
          "type": "uint256"
        }
      ],
      "payable": false,
      "stateMutability": "view",
      "type": "function"
    },
    {
      "constant": true,
      "inputs": [],
      "name": "tokenPrice",
      "outputs": [
        {
          "name": "",
          "type": "uint256"
        }
      ],
      "payable": false,
      "stateMutability": "view",
      "type": "function"
    },
    {
      "constant": true,
      "inputs": [],
      "name": "allCandidates",
      "outputs": [
        {
          "name": "",
          "type": "bytes32[]"
        }
      ],
      "payable": false,
      "stateMutability": "view",
      "type": "function"
    },
    {
      "constant": false,
      "inputs": [
        {
          "name": "account",
          "type": "address"
        }
      ],
      "name": "transferTo",
      "outputs": [],
      "payable": false,
      "stateMutability": "nonpayable",
      "type": "function"
    },
    {
      "constant": false,
      "inputs": [],
      "name": "buy",
      "outputs": [
        {
          "name": "",
          "type": "uint256"
        }
      ],
      "payable": true,
      "stateMutability": "payable",
      "type": "function"
    },
    {
      "constant": true,
      "inputs": [
        {
          "name": "",
          "type": "uint256"
        }
      ],
      "name": "candidateList",
      "outputs": [
        {
          "name": "",
          "type": "bytes32"
        }
      ],
      "payable": false,
      "stateMutability": "view",
      "type": "function"
    },
    {
      "constant": true,
      "inputs": [
        {
          "name": "",
          "type": "address"
        }
      ],
      "name": "voterInfo",
      "outputs": [
        {
          "name": "voterAddress",
          "type": "address"
        },
        {
          "name": "tokensBought",
          "type": "uint256"
        }
      ],
      "payable": false,
      "stateMutability": "view",
      "type": "function"
    },
    {
      "constant": true,
      "inputs": [],
      "name": "balanceTokens",
      "outputs": [
        {
          "name": "",
          "type": "uint256"
        }
      ],
      "payable": false,
      "stateMutability": "view",
      "type": "function"
    },
    {
      "constant": true,
      "inputs": [
        {
          "name": "candidate",
          "type": "bytes32"
        }
      ],
      "name": "indexOfCandidate",
      "outputs": [
        {
          "name": "",
          "type": "uint256"
        }
      ],
      "payable": false,
      "stateMutability": "view",
      "type": "function"
    },
    {
      "inputs": [
        {
          "name": "tokens",
          "type": "uint256"
        },
        {
          "name": "pricePerToken",
          "type": "uint256"
        },
        {
          "name": "candidateNames",
          "type": "bytes32[]"
        }
      ],
      "payable": false,
      "stateMutability": "nonpayable",
      "type": "constructor"
    }
  ],
  "bytecode": "0x6060604052341561000f57600080fd5b604051610db7380380610db7833981016040528080519060200190919080519060200190919080518201919050508060029080519060200190610053929190610071565b508260038190555082600481905550816005819055505050506100e9565b8280548282559060005260206000209081019282156100b3579160200282015b828111156100b2578251829060001916905591602001919060010190610091565b5b5090506100c091906100c4565b5090565b6100e691905b808211156100e25760008160009055506001016100ca565b5090565b90565b610cbf806100f86000396000f3006060604052600436106100db576000357c0100000000000000000000000000000000000000000000000000000000900463ffffffff1680632f265cf7146100e0578063455ca9bd1461011b578063518ab2a8146101545780635938750d1461017d5780636b2dc6b5146102125780637021939f146102425780637e1c0c091461027d5780637ff9b596146102a657806381c40715146102cf578063a03fa7e314610339578063a6f2ae3a14610372578063b13c744b14610390578063cdf58d35146103cf578063e4494a0f1461044f578063ecd098b014610478575b600080fd5b34156100eb57600080fd5b6101056004808035600019169060200190919050506104b3565b6040518082815260200191505060405180910390f35b341561012657600080fd5b610152600480803573ffffffffffffffffffffffffffffffffffffffff169060200190919050506104d8565b005b341561015f57600080fd5b61016761056e565b6040518082815260200191505060405180910390f35b341561018857600080fd5b6101b4600480803573ffffffffffffffffffffffffffffffffffffffff1690602001909190505061057c565b6040518083815260200180602001828103825283818151815260200191508051906020019060200280838360005b838110156101fd5780820151818401526020810190506101e2565b50505050905001935050505060405180910390f35b341561021d57600080fd5b610240600480803560001916906020019091908035906020019091905050610664565b005b341561024d57600080fd5b6102676004808035600019169060200190919050506108fb565b6040518082815260200191505060405180910390f35b341561028857600080fd5b610290610913565b6040518082815260200191505060405180910390f35b34156102b157600080fd5b6102b9610919565b6040518082815260200191505060405180910390f35b34156102da57600080fd5b6102e261091f565b6040518080602001828103825283818151815260200191508051906020019060200280838360005b8381101561032557808201518184015260208101905061030a565b505050509050019250505060405180910390f35b341561034457600080fd5b610370600480803573ffffffffffffffffffffffffffffffffffffffff16906020019091905050610981565b005b61037a6109db565b6040518082815260200191505060405180910390f35b341561039b57600080fd5b6103b16004808035906020019091905050610ae5565b60405180826000191660001916815260200191505060405180910390f35b34156103da57600080fd5b610406600480803573ffffffffffffffffffffffffffffffffffffffff16906020019091905050610b09565b604051808373ffffffffffffffffffffffffffffffffffffffff1673ffffffffffffffffffffffffffffffffffffffff1681526020018281526020019250505060405180910390f35b341561045a57600080fd5b610462610b4d565b6040518082815260200191505060405180910390f35b341561048357600080fd5b61049d600480803560001916906020019091905050610b53565b6040518082815260200191505060405180910390f35b6000600160008360001916600019168152602001908152602001600020549050919050565b6000808273ffffffffffffffffffffffffffffffffffffffff1673ffffffffffffffffffffffffffffffffffffffff168152602001908152602001600020600101546004540160048190555060008060008373ffffffffffffffffffffffffffffffffffffffff1673ffffffffffffffffffffffffffffffffffffffff1681526020019081526020016000206001018190555050565b600060045460035403905090565b6000610586610c1a565b6000808473ffffffffffffffffffffffffffffffffffffffff1673ffffffffffffffffffffffffffffffffffffffff168152602001908152602001600020600101546000808573ffffffffffffffffffffffffffffffffffffffff1673ffffffffffffffffffffffffffffffffffffffff1681526020019081526020016000206002018080548060200260200160405190810160405280929190818152602001828054801561065457602002820191906000526020600020905b815481526020019060010190808311610640575b5050505050905091509150915091565b600080600061067285610b53565b92507fffffffffffffffffffffffffffffffffffffffffffffffffffffffffffffffff83141515156106a357600080fd5b60008060003373ffffffffffffffffffffffffffffffffffffffff1673ffffffffffffffffffffffffffffffffffffffff16815260200190815260200160002060020180549050141561077857600091505b600280549050821015610777576000803373ffffffffffffffffffffffffffffffffffffffff1673ffffffffffffffffffffffffffffffffffffffff16815260200190815260200160002060020180548060010182816107559190610c2e565b91600052602060002090016000809091909150555081806001019250506106f5565b5b6108106000803373ffffffffffffffffffffffffffffffffffffffff1673ffffffffffffffffffffffffffffffffffffffff16815260200190815260200160002060020180548060200260200160405190810160405280929190818152602001828054801561080657602002820191906000526020600020905b8154815260200190600101908083116107f2575b5050505050610bd1565b6000803373ffffffffffffffffffffffffffffffffffffffff1673ffffffffffffffffffffffffffffffffffffffff1681526020019081526020016000206001015403905083811015151561086457600080fd5b8360016000876000191660001916815260200190815260200160002060008282540192505081905550836000803373ffffffffffffffffffffffffffffffffffffffff1673ffffffffffffffffffffffffffffffffffffffff168152602001908152602001600020600201848154811015156108dc57fe5b9060005260206000209001600082825401925050819055505050505050565b60016020528060005260406000206000915090505481565b60035481565b60055481565b610927610c5a565b600280548060200260200160405190810160405280929190818152602001828054801561097757602002820191906000526020600020905b8154600019168152602001906001019080831161095f575b5050505050905090565b8073ffffffffffffffffffffffffffffffffffffffff166108fc3073ffffffffffffffffffffffffffffffffffffffff16319081150290604051600060405180830381858888f1935050505015156109d857600080fd5b50565b600080600554348115156109eb57fe5b04905060045481111515156109ff57600080fd5b336000803373ffffffffffffffffffffffffffffffffffffffff1673ffffffffffffffffffffffffffffffffffffffff16815260200190815260200160002060000160006101000a81548173ffffffffffffffffffffffffffffffffffffffff021916908373ffffffffffffffffffffffffffffffffffffffff160217905550806000803373ffffffffffffffffffffffffffffffffffffffff1673ffffffffffffffffffffffffffffffffffffffff16815260200190815260200160002060010160008282540192505081905550806004600082825403925050819055508091505090565b600281815481101515610af457fe5b90600052602060002090016000915090505481565b60006020528060005260406000206000915090508060000160009054906101000a900473ffffffffffffffffffffffffffffffffffffffff16908060010154905082565b60045481565b600080600090505b600280549050811015610ba7578260001916600282815481101515610b7c57fe5b906000526020600020900154600019161415610b9a57809150610bcb565b8080600101915050610b5b565b7fffffffffffffffffffffffffffffffffffffffffffffffffffffffffffffffff91505b50919050565b6000806000809150600090505b8351811015610c10578381815181101515610bf557fe5b90602001906020020151820191508080600101915050610bde565b8192505050919050565b602060405190810160405280600081525090565b815481835581811511610c5557818360005260206000209182019101610c549190610c6e565b5b505050565b602060405190810160405280600081525090565b610c9091905b80821115610c8c576000816000905550600101610c74565b5090565b905600a165627a7a72305820de36890cbaa177aaa1614a4cbbd9be9171d2d5e3f1fe5dd07f1beefb7ee8bbcc0029",
  "source": "pragma solidity ^0.4.18;\n\ncontract Voting {\n\n struct voter {\n  address voterAddress;\n  uint tokensBought;\n  uint[] tokensUsedPerCandidate;\n }\n\n mapping (address => voter) public voterInfo;\n\n mapping (bytes32 => uint) public votesReceived;\n\n bytes32[] public candidateList;\n\n uint public totalTokens;\n uint public balanceTokens;\n uint public tokenPrice;\n\n function Voting(uint tokens, uint pricePerToken, bytes32[] candidateNames) public {\n  candidateList = candidateNames;\n  totalTokens = tokens;\n  balanceTokens = tokens;\n  tokenPrice = pricePerToken;\n }\n\n function buy() payable public returns (uint) {\n  uint tokensToBuy = msg.value / tokenPrice;\n  require(tokensToBuy <= balanceTokens);\n  voterInfo[msg.sender].voterAddress = msg.sender;\n  voterInfo[msg.sender].tokensBought += tokensToBuy;\n  balanceTokens -= tokensToBuy;\n  return tokensToBuy;\n }\n\n function totalVotesFor(bytes32 candidate) view public returns (uint) {\n  return votesReceived[candidate];\n }\n\n function voteForCandidate(bytes32 candidate, uint votesInTokens) public {\n  uint index = indexOfCandidate(candidate);\n  require(index != uint(-1));\n\n  if (voterInfo[msg.sender].tokensUsedPerCandidate.length == 0) {\n   for(uint i = 0; i < candidateList.length; i++) {\n    voterInfo[msg.sender].tokensUsedPerCandidate.push(0);\n   }\n  }\n\n  uint availableTokens = voterInfo[msg.sender].tokensBought - totalTokensUsed(voterInfo[msg.sender].tokensUsedPerCandidate);\n  require (availableTokens >= votesInTokens);\n\n  votesReceived[candidate] += votesInTokens;\n  voterInfo[msg.sender].tokensUsedPerCandidate[index] += votesInTokens;\n }\n\n function totalTokensUsed(uint[] _tokensUsedPerCandidate) private pure returns (uint) {\n  uint totalUsedTokens = 0;\n  for(uint i = 0; i < _tokensUsedPerCandidate.length; i++) {\n   totalUsedTokens += _tokensUsedPerCandidate[i];\n  }\n  return totalUsedTokens;\n }\n\n function indexOfCandidate(bytes32 candidate) view public returns (uint) {\n  for(uint i = 0; i < candidateList.length; i++) {\n   if (candidateList[i] == candidate) {\n    return i;\n   }\n  }\n  return uint(-1);\n }\n\n function tokensSold() view public returns (uint) {\n  return totalTokens - balanceTokens;\n }\n\n function voterDetails(address user) view public returns (uint, uint[]) {\n  return (voterInfo[user].tokensBought, voterInfo[user].tokensUsedPerCandidate);\n }\n\n function refundTokens(address user) public {\n   balanceTokens = balanceTokens + voterInfo[user].tokensBought;\n   voterInfo[user].tokensBought = 0;\n }\n\n function transferTo(address account) public {\n  account.transfer(this.balance);\n }\n\n function allCandidates() view public returns (bytes32[]) {\n  return candidateList;\n }\n}\n",
  "sourcePath": "/Users/blake/Documents/Development/ethereum/voting/chapter3/contracts/Voting.sol",
  "compiler": {
    "name": "solc",
    "version": "0.4.18+commit.9cf6e910.Emscripten.clang"
  },
  "schemaVersion": "1.0.1",
  "updatedAt": "2018-01-12T19:29:22.075Z"
}